:020000040800F2
:100000000050002039180008391700083F17000871
:10001000451700084B1700085117000800000000A2
:10002000000000000000000000000000571700085A
:1000300063170008000000006F1700087B17000816
:10004000811800088118000881180008811800082C
:10005000811800088118000881180008811800081C
:10006000811800088118000881180008811800080C
:1000700081180008811800088118000881180008FC
:1000800081180008811800088118000881180008EC
:1000900081180008811800088118000881180008DC
:1000A00081180008811800088118000881180008CC
:1000B00081180008811800088118000889170008B5
:1000C0009D17000881180008811800088118000891
:1000D000811800088118000881180008811800089C
:1000E000B1170008811800088118000800000000FE
:1000F0000000000000000000000000000000000000
:0C01000000000000000000005FF808F1A3
:1001100010B5054C237833B9044B13B10448AFF341
:1001200000800123237010BD740000200000000037
:100130005477000808B5034B1BB103490348AFF3DC
:10014000008008BD000000007800002054770008FF
:1001500081F0004102E000BF83F0004330B54FEA78
:1001600041044FEA430594EA050F08BF90EA020FE5
:100170001FBF54EA000C55EA020C7FEA645C7FEA78
:10018000655C00F0E2804FEA5454D4EB5555B8BF9B
:100190006D420CDD2C4480EA020281EA030382EA0C
:1001A000000083EA010180EA020281EA0303362D9E
:1001B00088BF30BD11F0004F4FEA01314FF4801C71
:1001C0004CEA113102D0404261EB410113F0004F83
:1001D0004FEA03334CEA133302D0524263EB43033A
:1001E00094EA050F00F0A780A4F10104D5F1200ED8
:1001F0000DDB02FA0EFC22FA05F2801841F1000133
:1002000003FA0EF2801843FA05F359410EE0A5F106
:1002100020050EF1200E012A03FA0EFC28BF4CF037
:10022000020C43FA05F3C01851EBE37101F00045ED
:1002300007D54FF0000EDCF1000C7EEB00006EEBFA
:100240000101B1F5801F1BD3B1F5001F0CD3490884
:100250005FEA30004FEA3C0C04F101044FEA4452DB
:1002600012F5800F80F09A80BCF1004F08BF5FEA62
:10027000500C50F1000041EB045141EA050130BD42
:100280005FEA4C0C404141EB0101013C28BFB1F554
:10029000801FE9D291F0000F04BF01460020B1FA9F
:1002A00081F308BF2033A3F10B03B3F120020CDA72
:1002B0000C3208DD02F1140CC2F10C0201FA0CF050
:1002C00021FA02F10CE002F11402D8BFC2F1200CB5
:1002D00001FA02F120FA0CFCDCBF41EA0C0190406B
:1002E000E41AA2BF01EB0451294330BD6FEA0404B4
:1002F0001F3C1CDA0C340EDC04F11404C4F120029F
:1003000020FA04F001FA02F340EA030021FA04F3B0
:1003100045EA030130BDC4F10C04C4F1200220FA07
:1003200002F001FA04F340EA0300294630BD21FA45
:1003300004F0294630BD94F0000F83F4801306BF0B
:1003400081F480110134013D4EE77FEA645C18BFFF
:100350007FEA655C29D094EA050F08BF90EA020F96
:1003600005D054EA000C04BF1946104630BD91EA8E
:10037000030F1EBF0021002030BD5FEA545C05D191
:100380004000494128BF41F0004130BD14F58004D0
:100390003CBF01F5801130BD01F0004545F0FE4144
:1003A00041F470014FF0000030BD7FEA645C1ABF79
:1003B000194610467FEA655C1CBF0B46024650EAB0
:1003C000013406BF52EA033591EA030F41F40021DC
:1003D00030BD00BF90F0000F04BF0021704730B562
:1003E0004FF4806404F132044FF000054FF0000137
:1003F00050E700BF90F0000F04BF0021704730B5F8
:100400004FF4806404F1320410F0004548BF4042CC
:100410004FF000013EE700BF42004FEAE2014FEA21
:1004200031014FEA02701FBF12F07F4393F07F4FFC
:1004300081F06051704732F07F4208BF704793F0FF
:100440007F4F04BF41F40021704730B54FF4607412
:1004500001F0004521F000411CE700BF50EA010215
:1004600008BF704730B54FF000050AE050EA0102BE
:1004700008BF704730B511F0004502D5404261EB2E
:1004800041014FF4806404F132045FEA915C3FF46F
:10049000D8AE4FF003025FEADC0C18BF03325FEA0C
:1004A000DC0C18BF033202EBDC02C2F1200300FABD
:1004B00003FC20FA02F001FA03FE40EA0E0021FAE2
:1004C00002F11444BDE600BF70B54FF0FF0C4CF4D0
:1004D000E06C1CEA11541DBF1CEA135594EA0C0F82
:1004E00095EA0C0F00F0DEF82C4481EA030621EABD
:1004F0004C5123EA4C5350EA013518BF52EA0335F8
:1005000041F4801143F4801338D0A0FB02CE4FF0A9
:100510000005E1FB02E506F00042E0FB03E54FF0D9
:100520000006E1FB03569CF0000F18BF4EF0010ED1
:10053000A4F1FF04B6F5007F64F5407404D25FEACD
:100540004E0E6D4146EB060642EAC62141EA555180
:100550004FEAC52040EA5E504FEACE2EB4F1FD0CC2
:1005600088BFBCF5E06F1ED8BEF1004F08BF5FEA40
:10057000500E50F1000041EB045170BD06F00046F2
:1005800046EA010140EA020081EA0301B4EB5C049F
:10059000C2BFD4EB0C0541EA045170BD41F4801197
:1005A0004FF0000E013C00F3AB8014F1360FDEBFBC
:1005B000002001F0004170BDC4F10004203C35DA98
:1005C0000C341BDC04F11404C4F1200500FA05F31B
:1005D00020FA04F001FA05F240EA020001F00042BC
:1005E00021F0004110EBD37021FA04F642EB060132
:1005F0005EEA430E08BF20EAD37070BDC4F10C045C
:10060000C4F1200500FA04F320FA05F001FA04F21F
:1006100040EA020001F0004110EBD37041F100010B
:100620005EEA430E08BF20EAD37070BDC4F1200516
:1006300000FA05F24EEA020E20FA04F301FA05F27E
:1006400043EA020321FA04F001F0004121FA04F226
:1006500020EA020000EBD3705EEA430E08BF20EAF6
:10066000D37070BD94F0000F0FD101F00046400030
:1006700041EB010111F4801F08BF013CF7D041EAB2
:10068000060195F0000F18BF704703F000465200B6
:1006900043EB030313F4801F08BF013DF7D043EA87
:1006A0000603704794EA0C0F0CEA135518BF95EA3D
:1006B0000C0F0CD050EA410618BF52EA4306D1D1C4
:1006C00081EA030101F000414FF0000070BD50EAE3
:1006D000410606BF1046194652EA430619D094EA6D
:1006E0000C0F02D150EA013613D195EA0C0F05D157
:1006F00052EA03361CBF104619460AD181EA0301AB
:1007000001F0004141F0FE4141F470014FF0000062
:1007100070BD41F0FE4141F4780170BD70B54FF0FD
:10072000FF0C4CF4E06C1CEA11541DBF1CEA13557D
:1007300094EA0C0F95EA0C0F00F0A7F8A4EB05045F
:1007400081EA030E52EA03354FEA013100F0888056
:100750004FEA03334FF0805545EA131343EA12631F
:100760004FEA022245EA111545EA10654FEA0026D4
:100770000EF000419D4208BF964244F1FD0404F58D
:10078000407402D25B084FEA3202B61A65EB0305E9
:100790005B084FEA32024FF480104FF4002CB6EBA6
:1007A000020E75EB030E22BFB61A754640EA0C0026
:1007B0005B084FEA3202B6EB020E75EB030E22BF66
:1007C000B61A754640EA5C005B084FEA3202B6EBA7
:1007D000020E75EB030E22BFB61A754640EA9C0066
:1007E0005B084FEA3202B6EB020E75EB030E22BF36
:1007F000B61A754640EADC0055EA060E18D04FEAF4
:10080000051545EA16754FEA06164FEAC30343EA93
:1008100052734FEAC2025FEA1C1CC0D111F4801F60
:100820000BD141EA00014FF000004FF0004CB6E759
:1008300011F4801F04BF01430020B4F1FD0C88BFF8
:10084000BCF5E06F3FF6AFAEB5EB030C04BFB6EB03
:10085000020C5FEA500C50F1000041EB045170BDF6
:100860000EF0004E4EEA113114EB5C04C2BFD4EB23
:100870000C0541EA045170BD41F480114FF0000EA7
:10088000013C90E645EA060E8DE60CEA135594EA23
:100890000C0F08BF95EA0C0F3FF43BAF94EA0C0F26
:1008A0000AD150EA01347FF434AF95EA0C0F7FF49B
:1008B00025AF104619462CE795EA0C0F06D152EAEF
:1008C00003353FF4FDAE1046194622E750EA4106D3
:1008D00018BF52EA43067FF4C5AE50EA41047FF4E4
:1008E0000DAF52EA43057FF4EBAE12E74FF0FF3C49
:1008F00006E000BF4FF0010C02E000BF4FF0010C1A
:100900004DF804CD4FEA410C7FEA6C5C4FEA430C92
:1009100018BF7FEA6C5C1BD001B050EA410C0CBFE1
:1009200052EA430C91EA030F02BF90EA020F002043
:10093000704710F1000F91EA030F58BF994208BFAA
:1009400090422CBFD8176FEAE37040F00100704767
:100950004FEA410C7FEA6C5C02D150EA013C07D1BE
:100960004FEA430C7FEA6C5CD6D152EA033CD3D009
:100970005DF8040B704700BF8446104662468C4603
:100980001946634600E000BF01B5FFF7B7FF002836
:1009900048BF10F1000F01BD4DF808EDFFF7F4FF5F
:1009A0000CBF012000205DF808FB00BF4DF808EDEA
:1009B000FFF7EAFF34BF012000205DF808FB00BF0D
:1009C0004DF808EDFFF7E0FF94BF012000205DF82F
:1009D00008FB00BF4DF808EDFFF7CEFF94BF0120E4
:1009E00000205DF808FB00BF4DF808EDFFF7C4FFDD
:1009F00034BF012000205DF808FB00BF4FEA410C26
:100A00007FEA6C5C02D150EA013C0AD14FEA430C08
:100A10007FEA6C5C02D152EA033C02D14FF0000045
:100A200070474FF0010070474FEA410212F5001283
:100A300015D211D56FF47873B3EB625212D94FEA25
:100A4000C12343F0004343EA505311F0004F23FA0F
:100A500002F018BF404270474FF00000704750EA64
:100A6000013005D111F0004008BF6FF00040704721
:100A70004FF00000704700BF80F0004002E000BF70
:100A800081F0004142001FBF5FEA410392EA030F79
:100A90007FEA226C7FEA236C6AD04FEA1262D2EBC3
:100AA0001363C1BFD218414048404140B8BF5B42C8
:100AB000192B88BF704710F0004F40F4000020F061
:100AC0007F4018BF404211F0004F41F4000121F077
:100AD0007F4118BF494292EA030F3FD0A2F10102C1
:100AE00041FA03FC10EB0C00C3F1200301FA03F1FF
:100AF00000F0004302D5494260EB4000B0F5000F22
:100B000013D3B0F1807F06D340084FEA310102F1E0
:100B10000102FE2A51D2B1F1004F40EBC25008BF92
:100B200020F0010040EA03007047490040EB00005C
:100B3000013A28BFB0F5000FEDD2B0FA80FCACF15D
:100B4000080CB2EB0C0200FA0CF0AABF00EBC2508A
:100B500052421843BCBFD0401843704792F0000F78
:100B600081F4000106BF80F400000132013BB5E7CB
:100B70004FEA41037FEA226C18BF7FEA236C21D041
:100B800092EA030F04D092F0000F08BF08467047A6
:100B900090EA010F1CBF0020704712F07F4F04D174
:100BA000400028BF40F00040704712F100723CBF87
:100BB00000F50000704700F0004343F0FE4040F4B1
:100BC000000070477FEA226216BF08467FEA23636F
:100BD0000146420206BF5FEA412390EA010F40F45A
:100BE000800070474FF0000304E000BF10F00043A6
:100BF00048BF40425FEA000C08BF704743F096438D
:100C000001464FF000001CE050EA010208BF7047A7
:100C10004FF000030AE000BF50EA010208BF70472E
:100C200011F0004302D5404261EB41015FEA010C43
:100C300002BF84460146002043F0B64308BFA3F13B
:100C40008053A3F50003BCFA8CF2083AA3EBC2531D
:100C500010DB01FA02FC634400FA02FCC2F120023C
:100C6000BCF1004F20FA02F243EB020008BF20F073
:100C70000100704702F1200201FA02FCC2F12002D9
:100C800050EA4C0021FA02F243EB020008BF20EACE
:100C9000DC7070474FF0FF0C1CEAD0521EBF1CEAFC
:100CA000D15392EA0C0F93EA0C0F6FD01A4480EAEA
:100CB000010C400218BF5FEA41211ED04FF00063D3
:100CC00043EA501043EA5111A0FB01310CF00040FF
:100CD000B1F5000F3EBF490041EAD3715B0040EA25
:100CE000010062F17F02FD2A1DD8B3F1004F40EBF5
:100CF000C25008BF20F00100704790F0000F0CF0C8
:100D0000004C08BF49024CEA502040EA51207F3A8B
:100D1000C2BFD2F1FF0340EAC250704740F4000066
:100D20004FF00003013A5DDC12F1190FDCBF00F057
:100D300000407047C2F10002410021FA02F1C2F105
:100D4000200200FA02FC5FEA310040F1000053EAA1
:100D50004C0308BF20EADC70704792F0000F00F0EF
:100D6000004C02BF400010F4000F013AF9D040EAF5
:100D70000C0093F0000F01F0004C02BF490011F489
:100D8000000F013BF9D041EA0C018FE70CEAD15387
:100D900092EA0C0F18BF93EA0C0F0AD030F0004C07
:100DA00018BF31F0004CD8D180EA010000F00040BB
:100DB000704790F0000F17BF90F0004F084691F079
:100DC000000F91F0004F14D092EA0C0F01D14202B3
:100DD0000FD193EA0C0F03D14B0218BF084608D17C
:100DE00080EA010000F0004040F0FE4040F40000C6
:100DF000704740F0FE4040F4400070474FF0FF0C59
:100E00001CEAD0521EBF1CEAD15392EA0C0F93EA9F
:100E10000C0F69D0A2EB030280EA010C49024FEAF1
:100E2000402037D04FF0805343EA111143EA1013AA
:100E30000CF000408B4238BF5B0042F17D024FF462
:100E4000000C8B4224BF5B1A40EA0C00B3EB510F3D
:100E500024BFA3EB510340EA5C00B3EB910F24BF26
:100E6000A3EB910340EA9C00B3EBD10F24BFA3EBAB
:100E7000D10340EADC001B0118BF5FEA1C1CE0D173
:100E8000FD2A3FF650AF8B4240EBC25008BF20F026
:100E9000010070470CF0004C4CEA50207F32C2BF7A
:100EA000D2F1FF0340EAC250704740F400004FF017
:100EB0000003013A37E792F0000F00F0004C02BF48
:100EC000400010F4000F013AF9D040EA0C0093F012
:100ED000000F01F0004C02BF490011F4000F013B6C
:100EE000F9D041EA0C0195E70CEAD15392EA0C0FD4
:100EF00008D142027FF47DAF93EA0C0F7FF470AF0C
:100F0000084676E793EA0C0F04D14B023FF44CAF4E
:100F100008466EE730F0004C18BF31F0004CCAD1E3
:100F200030F000427FF45CAF31F000437FF43CAF1F
:100F30005FE700BF4FF0FF3C06E000BF4FF0010C41
:100F400002E000BF4FF0010C4DF804CD4FEA400223
:100F50004FEA41037FEA226C18BF7FEA236C11D06D
:100F600001B052EA530C18BF90EA010F58BFB2EB20
:100F7000030088BFC81738BF6FEAE17018BF40F0A0
:100F8000010070477FEA226C02D15FEA402C05D154
:100F90007FEA236CE4D15FEA412CE1D05DF8040BD9
:100FA000704700BF844608466146FFE70FB5FFF76C
:100FB000C9FF002848BF10F1000F0FBD4DF808ED24
:100FC000FFF7F4FF0CBF012000205DF808FB00BF15
:100FD0004DF808EDFFF7EAFF34BF012000205DF86F
:100FE00008FB00BF4DF808EDFFF7E0FF94BF0120BC
:100FF00000205DF808FB00BF4DF808EDFFF7D2FFB9
:1010000094BF012000205DF808FB00BF4DF808EDFB
:10101000FFF7C8FF34BF012000205DF808FB00BFC8
:101020004FEA4002B2F1FE4F0FD34FF09E03B3EBF5
:1010300012620DD94FEA002343F0004310F0004F35
:1010400023FA02F018BF404270474FF0000070478B
:1010500012F1610F01D1420205D110F0004008BF2A
:101060006FF0004070474FF00000704780B400AF51
:10107000044B00221A70044B00221A7000BFBD46B8
:1010800080BC7047F0000020F100002080B584B0E3
:1010900000AF6F4B1B78062B00F2D08001A252F8F4
:1010A00023F000BFC1100008D7100008F31000089B
:1010B0002711000865110008A5110008C3110008D8
:1010C0006449654804F054FC642000F03DFC604B2A
:1010D00001221A70B7E0604804F070FC0346002B50
:1010E00003D05B4B02221A70ADE05C4B02221A70F7
:1010F000A9E0594804F04CFD034603F01803182BEF
:101100000AD0554804F08DFD4FF47A7000F01CFCB5
:101110004F4B01221A7096E00A2000F015FC4C4B50
:1011200003221A708FE000F005FC02464A4BDB698F
:10113000D31AB3F57A7F11D3474804F055FC034620
:101140001A46464B1A70454B1B78002B78D150201D
:1011500000F0FAFB3E4B04221A7071E03F4B06226E
:101160001A706DE000F0E6FB02463B4B9B69D31A18
:10117000B3F57A7F12D2384804F060FC03461A4671
:10118000364B1A70354B1B78002B03D1304B0522A0
:101190001A7058E02E4B03221A7054E02F4B052290
:1011A0001A7050E02C4804F087FC03461A462B4B7B
:1011B0001A702A4B1B78002B44D1254B06221A703B
:1011C00040E0254B9B6807F108010222184600F019
:1011D0004DF8214B5B6839460222184600F046F86C
:1011E0000021012004F04BFE1D4804F033FE0421D1
:1011F000012004F044FE3B46184604F02BFE32204A
:1012000000F0A2FB0021022004F039FE154804F092
:1012100021FE0521022004F032FE07F108031846E2
:1012200004F018FE4FF47A7000F08EFB02210E4895
:1012300000F0DEFE064B02221A7004E000BF02E05E
:1012400000BF00E000BF00BF1037BD4680BD00BF3B
:10125000F00000209C000020F4000020F10000209D
:10126000707700087877000800080140B0B588B0B2
:1012700000AFF860B9607A60F868FFF7D1FE034606
:10128000FB61F869FFF7B2FC03461946F868FFF7FF
:10129000F7FB0346BB614FF00001F868FFF798FECB
:1012A0000346002B0BD0FB695B42FB61BB6983F0FB
:1012B0000043BB61BB685A1CBA602D221A70FA69E0
:1012C0002149B86804F07EFE02E0BB680133BB60D0
:1012D000BB681B782E2B03D0BB681B78002BF4D186
:1012E000BB680133BB60B869FFF796F804460D464A
:1012F0007868FFF77FF802460B464FF0000013496D
:1013000005F09AFA02460B4620462946FFF7DCF81C
:1013100002460B46104619464FF000020C4BFEF7F2
:101320001DFF02460B4610461946FFF77DFB03469C
:101330007B617B697A680749B86804F043FE00BFA7
:101340002037BD46B0BD00BF8077000800002440B4
:101350000000E03F8477000880B500AF00F092FA0B
:1013600000F011F800F0A4F800F078F800F048F868
:10137000FFF77CFE4FF47A7000F0E6FA04F03CFDD3
:10138000FFF784FEFCE780B590B000AF07F11803CB
:1013900028220021184604F00DFE3B1D00221A6091
:1013A0005A609A60DA601A610223BB610123BB6252
:1013B0001023FB6200237B6307F11803184603F038
:1013C000EBFD0346002B01D000F0E0F80F237B601B
:1013D0000023BB600023FB604FF480633B6100236C
:1013E0007B613B1D0021184604F056F80346002B94
:1013F00001D000F0CBF800BF4037BD4680BD0000F3
:1014000080B500AF124B134A1A60114B124A5A6052
:101410000F4B00229A600E4B0022DA600C4B4FF407
:1014200080421A610A4B00225A61094B00229A61DC
:10143000074B0022DA61064B00221A62044800F0D2
:1014400013FE0346002B01D000F0A0F800BF80BDC2
:101450009C00002000540040A086010080B500AF31
:10146000114B124A1A60104B4FF4E1325A600E4B86
:1014700000229A600C4B0022DA600B4B00221A61AA
:10148000094B0C225A61084B00229A61064B00223C
:10149000DA61054804F08EF90346002B01D000F014
:1014A00075F800BF80BD00BF1C0100200044004053
:1014B00080B588B000AF07F1100300221A605A60AF
:1014C0009A60DA602D4B9B692C4A43F010039361BC
:1014D0002A4B9B6903F01003FB60FB68274B9B6959
:1014E000264A43F020039361244B9B6903F02003B9
:1014F000BB60BB68214B9B69204A43F004039361A6
:101500001E4B9B6903F004037B607B681B4B9B694C
:101510001A4A43F008039361184B9B6903F00803D0
:101520003B603B6800222221154800F049FD4FF442
:1015300000533B61134B7B610023BB6107F1100338
:101540001946114800F0B8FB22233B6101237B615F
:101550000023BB610223FB6107F110031946084811
:1015600000F0AAFB00220021282000F0E8FA282041
:1015700000F001FB00BF2037BD4680BD00100240D7
:1015800000080140000011100010014080B400AFBD
:1015900072B600BFFEE7000080B485B000AF154B07
:1015A0009B69144A43F001039361124B9B6903F05A
:1015B0000103BB60BB680F4BDB690E4A43F08053ED
:1015C000D3610C4BDB6903F080537B607B680A4B73
:1015D0005B68FB60FB6823F0E063FB60FB6843F043
:1015E0000073FB60044AFB68536000BF1437BD46BC
:1015F00080BC7047001002400000014080B58AB0F6
:1016000000AF786007F1140300221A605A609A60F4
:10161000DA607B681B68254A934242D1244B9B6960
:10162000234A43F008039361214B9B6903F00803AD
:101630003B613B694FF440737B611223BB61032321
:101640003B6207F1140319461A4800F035FB1A4BA8
:101650005B687B627B6A43F0E0637B627B6A43F09A
:1016600002037B62144A7B6A5360114BDB69104AA8
:1016700043F40013D3610E4BDB6903F40013FB60EA
:10168000FB68002200211F2000F059FA1F2000F003
:1016900072FA00220021202000F051FA202000F0F0
:1016A0006AFA00BF2837BD4680BD00BF0054004025
:1016B00000100240000C01400000014080B588B0DD
:1016C00000AF786007F1100300221A605A609A6038
:1016D000DA607B681B68154A934223D1144BDB699F
:1016E000134A43F40033D361114BDB6903F4003335
:1016F000FB60FB680E4B9B690D4A43F0040393614A
:101700000B4B9B6903F00403BB60BB680C233B617C
:1017100002237B610223FB6107F110031946054890
:1017200000F0CAFA00BF2037BD4680BD004400402B
:10173000001002400008014080B400AFFEE780B412
:1017400000AFFEE780B400AFFEE780B400AFFEE775
:1017500080B400AFFEE780B400AF00BFBD4680BCE0
:10176000704780B400AF00BFBD4680BC704780B4F6
:1017700000AF00BFBD4680BC704780B500AF00F031
:10178000C7F800BF80BD000080B500AF024801F07F
:10179000AAFB00BF80BD00BF9C00002080B500AF49
:1017A000024801F011FD00BF80BD00BF9C00002079
:1017B00080B500AF4FF4005000F034FC00BF80BD96
:1017C00080B586B000AF7860144A154BD31A7B61A0
:1017D0007B693B61134B1B68002B02D1114B124AF2
:1017E0001A60104B1A687B6813443A699A4207D210
:1017F00004F0B6FB03460C221A604FF0FF3309E0F9
:10180000084B1B68FB60074B1A687B681344054A4A
:101810001360FB6818461837BD4680BD0050002095
:1018200000040000900000208001002080B400AF80
:1018300000BFBD4680BC7047FFF7F8FF0B480C495E
:101840000C4A002302E0D458C4500433C4188C421C
:10185000F9D3094A094C002301E013600432A24283
:10186000FBD304F083FBFFF777FD704700000020F7
:1018700074000020407800087400002080010020DF
:10188000FEE7000080B500AF084B1B68074A43F035
:1018900010031360032000F047F9002000F008F85F
:1018A000FFF77AFE0023184680BD00BF00200240EB
:1018B00080B582B000AF7860124B1A68124B1B786B
:1018C00019464FF47A73B3FBF1F3B2FBF3F3184606
:1018D00000F05FF90346002B01D001230EE07B6886
:1018E0000F2B0AD8002279684FF0FF3000F027F95B
:1018F000064A7B681360002300E00123184608377E
:10190000BD4680BD0000002008000020040000202B
:1019100080B400AF054B1B781A46054B1B68134477
:10192000034A136000BFBD4680BC7047080000201A
:101930006401002080B400AF024B1B681846BD460E
:1019400080BC70476401002080B584B000AF78602F
:10195000FFF7F0FFB8607B68FB60FB68B3F1FF3F07
:1019600005D00A4B1B781A46FB681344FB6000BF86
:10197000FFF7E0FF0246BB68D31AFA689A42F7D82D
:1019800000BF00BF1037BD4680BD00BF080000206B
:1019900080B485B000AF78607B6803F00703FB601C
:1019A0000C4BDB68BB60BA684FF6FF031340BB60AB
:1019B000FB681A02BB68134343F0BF6343F4003370
:1019C000BB60044ABB68D36000BF1437BD4680BC0F
:1019D000704700BF00ED00E080B400AF044BDB684F
:1019E0001B0A03F007031846BD4680BC704700BFC2
:1019F00000ED00E080B483B000AF0346FB7197F9BF
:101A00000730002B0BDBFB7903F01F02064997F927
:101A100007305B09012000FA02F241F8232000BFE1
:101A20000C37BD4680BC704700E100E080B483B055
:101A300000AF03463960FB7197F90730002B0ADBD2
:101A40003B68DAB20C4997F907301201D2B20B4465
:101A500083F800230AE03B68DAB20849FB7903F017
:101A60000F03043B1201D2B20B441A7600BF0C37AD
:101A7000BD4680BC704700BF00E100E000ED00E023
:101A800080B489B000AFF860B9607A60FB6803F099
:101A90000703FB61FB69C3F10703042B28BF042381
:101AA000BB61FB690433062B02D9FB69033B00E0F1
:101AB00000237B614FF0FF32BB6902FA03F3DA4384
:101AC000BB681A407B699A404FF0FF317B6901FA8D
:101AD00003F3D9437B680B40134318462437BD46B4
:101AE00080BC704780B582B000AF78607B68013BF6
:101AF000B3F1807F01D301230FE00A4A7B68013BE9
:101B000053600F214FF0FF30FFF790FF054B00228D
:101B10009A60044B07221A60002318460837BD4616
:101B200080BD00BF10E000E080B582B000AF7860FB
:101B30007868FFF72DFF00BF0837BD4680BD80B530
:101B400086B000AF0346B9607A60FB7300237B6107
:101B5000FFF742FF78617A68B9687869FFF790FF0C
:101B6000024697F90F3011461846FFF75FFF00BF96
:101B70001837BD4680BD80B582B000AF0346FB710B
:101B800097F907301846FFF735FF00BF0837BD4605
:101B900080BD80B582B000AF78607868FFF7A2FFA3
:101BA000034618460837BD4680BD000080B584B0A6
:101BB00000AF78600023FB737B6893F82130DBB2C1
:101BC000022B05D07B6804229A630123FB7351E04A
:101BD0007B681B681A687B681B6822F00E021A601B
:101BE0007B681B681A687B681B6822F001021A6018
:101BF0007B681B68224A934229D07B681B68214A74
:101C0000934222D07B681B681F4A93421AD07B689C
:101C10001B681E4A934212D07B681B681C4A934281
:101C20000AD07B681B681B4A934202D14FF4801391
:101C30000EE04FF080730BE04FF4803308E04FF478
:101C4000805305E04FF4807302E0102300E001238D
:101C5000114A53607B68012283F821207B680022AF
:101C600083F820207B685B6B002B03D07B685B6B69
:101C700078689847FB7B18461037BD4680BD00BF8B
:101C8000080002401C0002403000024044000240B4
:101C9000580002406C0002400000024080B483B053
:101CA00000AF78607B6893F82130DBB218460C37C0
:101CB000BD4680BC7047000080B48BB000AF786038
:101CC000396000237B6200233B6269E101227B6A69
:101CD00002FA03F3FB613B681B68FA691340BB61BE
:101CE000BA69FB699A4240F058813B685B689A4A3E
:101CF00093425ED0984A934275D8984A934258D0FE
:101D0000964A93426FD8964A934252D0944A93424D
:101D100069D8944A93424CD0924A934263D8924AEB
:101D2000934246D0904A93425DD8122B2AD8122B68
:101D300059D801A252F823F0B31D00088D1D0008E8
:101D40009F1D0008E11D0008E71D0008E71D0008B1
:101D5000E71D0008E71D0008E71D0008E71D000853
:101D6000E71D0008E71D0008E71D0008E71D000843
:101D7000E71D0008E71D0008E71D0008951D000885
:101D8000A91D0008794A934213D02CE03B68DB6818
:101D90003B6229E03B68DB6804333B6224E03B683C
:101DA000DB6808333B621FE03B68DB680C333B6257
:101DB0001AE03B689B68002B02D104233B6213E0CE
:101DC0003B689B68012B05D108233B627B68FA695D
:101DD0001A6109E008233B627B68FA695A6103E0F3
:101DE00000233B6200E000BFBB69FF2B01D87B688A
:101DF00001E07B6804337B61BB69FF2B02D87B6AFF
:101E00009B0002E07B6A083B9B003B617B691A6890
:101E10000F213B6901FA03F3DB431A40396A3B693E
:101E200001FA03F31A437B691A603B685B6803F0AD
:101E30008053002B00F0B1804D4B9B694C4A43F01E
:101E4000010393614A4B9B6903F00103BB60BB68CC
:101E5000484A7B6A9B08023352F82330FB607B6A56
:101E600003F003039B000F2202FA03F3DB43FA683B
:101E70001340FB607B68404A934213D07B683F4A23
:101E800093420DD07B683E4A934207D07B683D4A1F
:101E9000934201D1032306E0042304E0022302E07D
:101EA000012300E000237A6A02F0030292009340CB
:101EB000FA681343FB602F497B6A9B080233FA6878
:101EC00041F823203B685B6803F48013002B06D0A5
:101ED0002D4B9A682C49BB6913438B6006E02A4B53
:101EE0009A68BB69DB43284913408B603B685B6899
:101EF00003F40013002B06D0234BDA682249BB6998
:101F00001343CB6006E0204BDA68BB69DB431E4914
:101F10001340CB603B685B6803F40033002B06D0B2
:101F2000194B5A681849BB6913434B6006E0164BBE
:101F30005A68BB69DB43144913404B603B685B68DC
:101F400003F48033002B21D00F4B1A680E49BB6974
:101F500013430B6021E000BF00003210000031107D
:101F600000002210000021100000121000001110CB
:101F7000001002400000014000080140000C014038
:101F80000010014000140140000401400B4B1A688E
:101F9000BB69DB43094913400B607B6A01337B62F9
:101FA0003B681A687B6A22FA03F3002B7FF48EAE3B
:101FB00000BF00BF2C37BD4680BC70470004014005
:101FC00080B483B000AF78600B467B8013467B7093
:101FD0007B78002B03D07A887B681A6103E07B88CA
:101FE0001A047B681A6100BF0C37BD4680BC70477D
:101FF00080B485B000AF78600B467B807B68DB687F
:10200000FB607A88FB6813401A04FB68D9437B881D
:102010000B401A437B681A6100BF1437BD4680BC71
:102020007047000080B582B000AF0346FB80084BCC
:102030005A69FB881340002B06D0054AFB88536180
:10204000FB88184600F006F800BF0837BD4680BD83
:102050000004014080B483B000AF0346FB8000BFA2
:102060000C37BD4680BC704780B584B000AF786047
:102070007B68002B01D101232BE17B6893F83D3075
:10208000DBB2002B06D17B68002283F83C20786805
:10209000FFF7B4FA7B68242283F83D207B681B6835
:1020A0001A687B681B6822F001021A607B681B6853
:1020B0001A687B681B6842F400421A607B681B68E0
:1020C0001A687B681B6822F400421A6003F02CFB3C
:1020D000F8607B685B68814A934207D8FB68804A56
:1020E000934294BF01230023DBB206E0FB687D4AE4
:1020F000934294BF01230023DBB2002B01D00123C4
:10210000E7E0FB68784AA2FB03239B0CBB607B687B
:102110001B685B6823F03F017B681B68BA680A4351
:102120005A607B681B681B6A23F03F017B685B6811
:102130006A4A934202D8BB68013309E0BB684FF496
:10214000967202FB03F3694AA2FB03239B09013346
:102150007A6812680B4313627B681B68DB6923F49F
:102160004F4222F0FF027B685B685C498B4219D8C2
:10217000FB68591E7B685B685B00B1FBF3F3591C7D
:1021800040F6FC730B40002B0AD0FB68591E7B689D
:102190005B685B00B1FBF3F30133C3F30B0351E066
:1021A00004234FE07B689B68002B11D1FB68581E0D
:1021B0007B6859680B465B000B44B0FBF3F30133BB
:1021C000C3F30B03002B0CBF01230023DBB212E08F
:1021D000FB68581E7B6859680B469B000B449900AE
:1021E0000B44B0FBF3F30133C3F30B03002B0CBF21
:1021F00001230023DBB2002B01D0012322E07B6806
:102200009B68002B0ED1FB68581E7B6859680B46F3
:102210005B000B44B0FBF3F30133C3F30B0343F454
:1022200000430FE0FB68581E7B6859680B469B0013
:102230000B4499000B44B0FBF3F30133C3F30B03DE
:1022400043F44043796809681343CB617B681B689A
:102250001B6823F0C0017B68DA697B681B6A1A433C
:102260007B681B680A431A607B681B689B6823F4C1
:10227000034323F0FF037A6811697A68D268114337
:102280007A6812680B4393607B681B68DB6823F0F5
:10229000FF017B685A697B689B691A437B681B68EE
:1022A0000A43DA607B681B681A687B681B6842F027
:1022B00001021A607B6800221A647B68202283F87E
:1022C0003D207B6800221A637B68002283F83E2051
:1022D000002318461037BD4680BD00BFA086010010
:1022E0007F841E00FF083D0083DE1B43D34D621038
:1022F00080B483B000AF78607B681B685B6903F0D3
:102300008003802B03D17B681B6800221A6100BF09
:102310000C37BD4680BC704780B588B002AFF8600E
:102320007A601A460B467B8113463B81FFF702FB1E
:102330007861FB6893F83D30DBB2202B40F0E08001
:102340007B690093192301227049F86802F0A2FB0F
:102350000346002B01D00223D3E0FB6893F83C3006
:10236000012B01D10223CCE0FB68012283F83C2041
:10237000FB681B681B6803F00103012B07D0FB6897
:102380001B681A68FB681B6842F001021A60FB6850
:102390001B681A68FB681B6822F400621A60FB68FD
:1023A000212283F83D20FB68102283F83E20FB6841
:1023B00000221A64FB687A685A62FB683A895A8577
:1023C000FB685B8D9AB2FB681A85FB68504ADA623B
:1023D00079897B693A6AF86802F064F90346002B50
:1023E00001D001238DE000233B61FB681B685B6922
:1023F0003B61FB681B689B693B613B6966E07A69EE
:10240000396AF86802F060FC0346002B0DD0FB68C7
:102410001B6C042B07D1FB681B681A68FB681B68E0
:1024200042F400721A6001236BE0FB685B6A1A7861
:10243000FB681B681A61FB685B6A5A1CFB685A627E
:10244000FB685B8D9BB2013B9AB2FB685A85FB68C7
:102450001B8D013B9AB2FB681A85FB681B685B69A0
:1024600003F00403042B1BD1FB681B8D002B17D03A
:10247000FB685B6A1A78FB681B681A61FB685B6A19
:102480005A1CFB685A62FB685B8D9BB2013B9AB297
:10249000FB685A85FB681B8D013B9AB2FB681A8565
:1024A0007A69396AF86802F057FC0346002B0DD0B0
:1024B000FB681B6C042B07D1FB681B681A68FB6860
:1024C0001B6842F400721A6001231AE0FB681B8D3E
:1024D000002B94D1FB681B681A68FB681B6842F4E8
:1024E00000721A60FB68202283F83D20FB680022FE
:1024F00083F83E20FB68002283F83C20002300E0A4
:10250000022318461837BD4680BD00BF02001000E8
:102510000000FFFF80B58CB002AFF8607A601A4609
:102520000B467B8113463B8100233B62FFF702FA97
:102530007862FB6893F83D30DBB2202B40F04B8291
:102540007B6A0093192301227F49F86802F0A2FAFE
:102550000346002B01D002233EE2FB6893F83C3097
:10256000012B01D1022337E2FB68012283F83C20D2
:10257000FB681B681B6803F00103012B07D0FB6895
:102580001B681A68FB681B6842F001021A60FB684E
:102590001B681A68FB681B6822F400621A60FB68FB
:1025A000222283F83D20FB68102283F83E20FB683E
:1025B00000221A64FB687A685A62FB683A895A8575
:1025C000FB685B8D9AB2FB681A85FB685F4ADA622A
:1025D00079897B6A3A6BF86802F0E6F80346002BCB
:1025E00001D00123F8E1FB681B8D002B13D10023E0
:1025F000FB61FB681B685B69FB61FB681B689B698F
:10260000FB61FB69FB681B681A68FB681B6842F486
:1026100000721A60CCE1FB681B8D012B1ED1FB6898
:102620001B681A68FB681B6822F480621A6072B625
:1026300000BF0023BB61FB681B685B69BB61FB6873
:102640001B689B69BB61BB69FB681B681A68FB68F8
:102650001B6842F400721A6062B635E0FB681B8D9D
:10266000022B1ED1FB681B681A68FB681B6842F4CA
:1026700000621A6072B600BF00237B61FB681B68B2
:102680005B697B61FB681B689B697B617B69FB689D
:102690001B681A68FB681B6822F480621A6062B6C5
:1026A00012E0FB681B681A68FB681B6842F48062D2
:1026B0001A6000233B61FB681B685B693B61FB6838
:1026C0001B689B693B613B6972E1FB681B8D032BB7
:1026D00000F21F81FB681B8D012B23D17A6A396BB5
:1026E000F86802F0B3FB0346002B01D0012373E12D
:1026F000FB681B681A69FB685B6AD2B21A70FB68D8
:102700005B6A5A1CFB685A62FB681B8D013B9AB2DC
:10271000FB681A85FB685B8D9BB2013B9AB2FB6834
:102720005A8545E1FB681B8D022B52D17B6A0093D1
:102730003B6B00220649F86802F0ACF90346002B17
:1027400008D0012348E100BF020010000000FFFF95
:102750000400010072B600BFFB681B681A68FB68C2
:102760001B6842F400721A60FB681B681A69FB68F8
:102770005B6AD2B21A70FB685B6A5A1CFB685A62C9
:10278000FB681B8D013B9AB2FB681A85FB685B8D69
:102790009BB2013B9AB2FB685A8562B600BFFB68E8
:1027A0001B681A69FB685B6AD2B21A70FB685B6AC5
:1027B0005A1CFB685A62FB681B8D013B9AB2FB688E
:1027C0001A85FB685B8D9BB2013B9AB2FB685A8508
:1027D000EEE07B6A00933B6B00228149F86802F0CF
:1027E00059F90346002B01D00123F5E0FB681B6873
:1027F0001A68FB681B6822F480621A6072B600BF18
:10280000FB681B681A69FB685B6AD2B21A70FB68C6
:102810005B6A5A1CFB685A62FB681B8D013B9AB2CB
:10282000FB681A85FB685B8D9BB2013B9AB2FB6823
:102830005A856C4B1B68DB086B4AA2FB03231A0A00
:1028400013469B001344DA00D31A3B623B6A013BF8
:102850003B623B6A002B18D1FB6800221A63FB68BD
:10286000202283F83D20FB68002283F83E20FB688D
:102870001B6C43F02002FB681A6462B600BFFB6861
:10288000002283F83C200123A6E0FB681B685B69FB
:1028900003F00403042BD9D1FB681B681A68FB689A
:1028A0001B6842F400721A60FB681B681A69FB68B7
:1028B0005B6AD2B21A70FB685B6A5A1CFB685A6288
:1028C000FB681B8D013B9AB2FB681A85FB685B8D28
:1028D0009BB2013B9AB2FB685A8562B600BFFB68A7
:1028E0001B681A69FB685B6AD2B21A70FB685B6A84
:1028F0005A1CFB685A62FB681B8D013B9AB2FB684D
:102900001A85FB685B8D9BB2013B9AB2FB685A85C6
:102910004EE07A6A396BF86802F098FA0346002BA9
:1029200001D0012358E0FB681B681A69FB685B6AE9
:10293000D2B21A70FB685B6A5A1CFB685A62FB6869
:102940001B8D013B9AB2FB681A85FB685B8D9BB2BD
:10295000013B9AB2FB685A85FB681B685B6903F010
:102960000403042B24D1FB681B8D032B07D1FB68C8
:102970001B681A68FB681B6822F480621A60FB6897
:102980001B681A69FB685B6AD2B21A70FB685B6AE3
:102990005A1CFB685A62FB681B8D013B9AB2FB68AC
:1029A0001A85FB685B8D9BB2013B9AB2FB685A8526
:1029B000FB681B8D002B7FF488AEFB68202283F818
:1029C0003D20FB68002283F83E20FB68002283F84C
:1029D0003C20002300E0022318462837BD4680BD76
:1029E000040001000000002089B5F81480B487B00D
:1029F00000AFF8607A601A460B467B8113463B8134
:102A000000237B61FB6893F83D30DBB2202B40F064
:102A10008980474B1B68DB08464AA2FB03231A0A3E
:102A200013469B0013449A0013447B617B69013B6E
:102A30007B617B69002B12D1FB6800221A63FB6863
:102A4000202283F83D20FB68002283F83E20FB68AB
:102A50001B6C43F02002FB681A64022363E0FB68EE
:102A60001B689B6903F00203022BDFD0FB6893F81D
:102A70003C30012B01D1022355E0FB68012283F891
:102A80003C20FB681B681B6803F00103012B07D087
:102A9000FB681B681A68FB681B6842F001021A6039
:102AA000FB681B681A68FB681B6822F400621A60E6
:102AB000FB68222283F83D20FB68102283F83E2029
:102AC000FB6800221A64FB687A685A62FB683A89DC
:102AD0005A85FB685B8D9AB2FB681A85FB68164ABB
:102AE000DA627A89FB685A64FB68002283F83C202A
:102AF000FB681B685A68FB681B6842F4E0625A6016
:102B0000FB681B681A68FB681B6842F480621A60E5
:102B1000FB681B681A68FB681B6842F480721A60C5
:102B2000002300E0022318461C37BD4680BC7047D6
:102B30000000002089B5F8140000FFFF80B58AB0BE
:102B400002AFF8607A603B600B467B81FEF7F2FED5
:102B5000F8610023BB61FB6893F83D30DBB2202BAA
:102B600040F01181FB690093192301228849F8681C
:102B700001F090FF0346002B01D0022304E1FB6823
:102B800093F83C30012B01D10223FDE0FB680122C8
:102B900083F83C20FB681B681B6803F00103012BD2
:102BA00007D0FB681B681A68FB681B6842F00102CB
:102BB0001A60FB681B681A68FB681B6822F40062D5
:102BC0001A60FB68242283F83D20FB6800221A6407
:102BD000FB68704ADA62FB681B681A68FB681B684E
:102BE00042F480721A60FB6900933B6800224FF048
:102BF0000111F86801F04EFF0346002B0DD0FB6871
:102C00001B681B6803F48073B3F5807F03D1FB68F6
:102C10004FF400721A640323B6E07B89DBB21A46D4
:102C2000FB681B6802F0FE021A61FEF783FEF86182
:102C3000FB681B685B6903F00203022B0CBF0123D6
:102C40000023DBB2FB75FB681B685B6903F48063E0
:102C5000B3F5806F0CBF01230023DBB2BB7525E009
:102C6000FEF768FE0246FB69D31A3A689A4202D31D
:102C70003B68002B03D1FB68A02283F83D20FB6852
:102C80001B685B6903F00203022B0CBF01230023C6
:102C9000DBB2FB75FB681B685B6903F48063B3F50B
:102CA000806F0CBF01230023DBB2BB75FB6893F878
:102CB0003D30DBB2A02B05D0FB7D002B02D1BB7DCC
:102CC000002BCDD0FB68202283F83D20FB681B68D9
:102CD0005B6903F00203022B29D1FB681B681A68A9
:102CE000FB681B6842F400721A6000233B61FB68BA
:102CF0001B685B693B61FB681B689B693B613B69C7
:102D0000FB690093192301222149F86801F0C2FEF2
:102D10000346002B01D0012336E0FB68202283F814
:102D20003D20FB68002283F83C2000232CE0FB6858
:102D30001B681A68FB681B6842F400721A60FB6823
:102D40001B686FF480625A61FB69009319230122AA
:102D50000F49F86801F09EFE0346002B01D00123C5
:102D600012E0BB690133BB61BA697B689A42FFF428
:102D700032AFFB68202283F83D20FB68002283F8F5
:102D80003C20012300E0022318462037BD4680BDC9
:102D9000020010000000FFFF80B487B000AFF860B1
:102DA000B9603B601346FB80FB6893F83D30DBB2B3
:102DB00003F02803282B5BD1BB68002B02D0FB88D3
:102DC000002B01D1012354E0FB6893F83C30012B28
:102DD00001D102234DE0FB68012283F83C20FB680F
:102DE0001B681B6803F00103012B07D0FB681B68FD
:102DF0001A68FB681B6842F001021A60FB681B68D6
:102E00001A68FB681B6822F400621A60FB682A22B9
:102E100083F83D20FB68202283F83E20FB680022D7
:102E20001A64FB68BA685A62FB68FA885A85FB68BC
:102E30005B8D9AB2FB681A85FB683A68DA620023F8
:102E40007B61FB681B685B697B61FB681B689B6936
:102E50007B617B69FB68002283F83C20FB681B6870
:102E60005A68FB681B6842F4E0625A60002300E085
:102E7000022318461C37BD4680BC704780B483B01F
:102E800000AF78607B6893F83D30DBB2202B24D113
:102E90007B68282283F83D207B681B681B6803F051
:102EA0000103012B07D07B681B681A687B681B68CD
:102EB00042F001021A607B681B681A687B681B6815
:102EC00042F480621A607B681B685A687B681B68E2
:102ED00042F440725A60002300E0022318460C3787
:102EE000BD4680BC704780B588B000AF78600023D5
:102EF000BB617B681B685B687B617B68DB6A3B61ED
:102F00007B6893F83E30FB737B6893F83D30BB736E
:102F1000FB7B102B03D0FB7B402B40F0C1807B68F8
:102F20001B689B69BB617B681B685B69FB61FB6914
:102F300003F00103002B0DD13B69B3F52A0F03D039
:102F40003B69B3F12A4F01D1012300E00023012B9B
:102F500000F03281FB6903F00103002B0CD07B6988
:102F60005B0A03F00103002B06D0786801F0F9FF3B
:102F7000786800F071FD92E0FB69DB0803F0010363
:102F8000002B09D07B695B0A03F00103002B03D0FF
:102F9000786800F0E6FD82E0FB695B0803F001035E
:102FA000002B09D07B695B0A03F00103002B03D0DF
:102FB000786800F0FFFD72E0BB699B0803F0010335
:102FC000002B3BD07B681B685B6803F40063B3F5A0
:102FD000006F00F0F380FB69DB0903F00103002BB5
:102FE0000FD07B699B0A03F00103002B09D0FB691A
:102FF0009B0803F00103002B03D1786800F0C9F9A6
:103000004DE0FB699B0803F00103002B00F0D68024
:103010007B695B0A03F00103002B00F0CF80BB7BD0
:10302000212B03D1786800F050FAC7E0FB7B402BDE
:1030300040F0C480786800F0BEFABFE07B681B688F
:103040005B6803F40063B3F5006F00F0B780FB69C1
:103050009B0903F00103002B0FD07B699B0A03F04F
:103060000103002B09D0FB699B0803F00103002B2F
:1030700003D1786800F037FB11E0FB699B0803F08F
:103080000103002B00F09A807B695B0A03F00103C7
:10309000002B00F09380786800F0EDFB8EE08DE06F
:1030A0007B681B6C002B04D07B681B685B69FB6131
:1030B00007E07B681B689B69BB617B681B685B6979
:1030C000FB61FB695B0803F00103002B12D07B69F5
:1030D0005B0A03F00103002B0CD07B681B6C002BF8
:1030E00003D07B681B689B69BB61B969786800F095
:1030F000B8FF66E0FB691B0903F00103002B09D050
:103100007B695B0A03F00103002B03D0786800F0B1
:10311000F3FF56E0BB7B212B02D0BB7B292B25D1B3
:10312000FB69DB0903F00103002B0FD07B699B0ACD
:1031300003F00103002B09D0FB699B0803F0010396
:10314000002B03D1786800F0D0FE39E0FB699B08C2
:1031500003F00103002B33D07B695B0A03F001030A
:10316000002B2DD0786800F0FDFE29E0FB699B095B
:1031700003F00103002B0FD07B699B0A03F00103CE
:10318000002B09D0FB699B0803F00103002B03D13E
:10319000786800F007FF14E0FB699B0803F0010367
:1031A000002B0ED07B695B0A03F00103002B08D0D3
:1031B000786800F035FF04E000BF02E000BF00E0E7
:1031C00000BF2037BD4680BD80B58AB000AF7860B3
:1031D0007B681B685B693B627B681B685B68FB61A3
:1031E00000237B627B6893F83E30FB763B6A1B0AC8
:1031F00003F00103002B16D0FB691B0A03F0010347
:10320000002B10D07B6A43F001037B627B681B6854
:103210006FF480725A617B681B681A687B681B6850
:1032200042F400421A603B6A5B0A03F00103002B80
:103230000ED0FB691B0A03F00103002B08D07B6A48
:1032400043F002037B627B681B686FF400725A6173
:103250003B6A9B0A03F00103002B3FD0FB691B0A6A
:1032600003F00103002B39D0FB7EBB767B685B8DBE
:103270009BB27B617B6893F83D30FB747B681B6B72
:10328000FB60BB7E202B12D17B69002B0FD1FB7C16
:10329000212B08D0FB7C292B05D0FB7C282B06D1C9
:1032A000FB68212B03D1786801F056F816E07B68A3
:1032B0001B686FF480625A617B6A43F004037B628F
:1032C000FB7E102B02D0FB7E402B07D17B681B6856
:1032D0001A687B681B6842F400721A603B6ADB0A5A
:1032E00003F00103002B0ED0FB691B0A03F001035E
:1032F000002B08D07B6A43F008037B627B681B6865
:103300006FF400625A617B6A002B08D07B681A6CEC
:103310007B6A1A437B681A64786801F091F800BFF1
:103320002837BD4680BD80B483B000AF786000BF51
:103330000C37BD4680BC704780B483B000AF786066
:1033400000BF0C37BD4680BC704780B483B000AF6F
:10335000786000BF0C37BD4680BC704780B483B036
:1033600000AF786000BF0C37BD4680BC704780B4AA
:1033700083B000AF786000BF0C37BD4680BC70479B
:1033800080B483B000AF786000BF0C37BD4680BC0E
:10339000704780B584B000AF78607B6893F83D30AB
:1033A000FB737B6893F83E30BB737B68DB6ABB6062
:1033B0007B681B8D002B50D1FB7B212B4DD1BB6833
:1033C000082B1DD0BB68202B1AD0BB6813F5803F9B
:1033D00016D07B681B685A687B681B6822F4E06221
:1033E0005A607B6811221A637B68002283F83E20B2
:1033F0007B68202283F83D207868FFF794FF60E027
:103400007B681B685A687B681B6822F4E0625A601C
:103410007B681B681A687B681B6842F400721A603C
:103420007B6800221A637B68202283F83D207B683A
:1034300093F83E30DBB2402B07D17B68002283F843
:103440003E207868FFF78AFF3BE07B68002283F824
:103450003E207868FFF767FF33E0FB7B212B05D028
:10346000BB7B402B2DD1FB7B222B2AD17B685B8D34
:103470009BB2002B08D17B681B685A687B681B686D
:1034800022F480625A601CE07B6893F83E30DBB225
:10349000402B03D1786800F08EF812E07B685B6AFD
:1034A0001A787B681B681A617B685B6A5A1C7B68A8
:1034B0005A627B685B8D9BB2013B9AB27B685A85EE
:1034C000FFE700BF1037BD4680BD80B584B000AFB8
:1034D00078607B68DB6AFB607B6893F83D30DBB229
:1034E000212B64D17B685B8D9BB2002B12D07B6853
:1034F0005B6A1A787B681B681A617B685B6A5A1C76
:103500007B685A627B685B8D9BB2013B9AB27B6899
:103510005A854CE0FB68082B1DD0FB68202B1AD085
:10352000FB6813F5803F16D07B681B685A687B6880
:103530001B6822F4E0625A607B6811221A637B6880
:10354000002283F83E207B68202283F83D207868A3
:10355000FFF7E9FE2BE07B681B685A687B681B68F5
:1035600022F4E0625A607B681B681A687B681B68FB
:1035700042F400721A607B6800221A637B68202282
:1035800083F83D207B6893F83E30DBB2402B07D1B7
:103590007B68002283F83E207868FFF7DFFE06E0B4
:1035A0007B68002283F83E207868FFF7BCFE00BFEE
:1035B0001037BD4680BD80B584B000AF78607B68B1
:1035C00093F83D30FB737B681B6D002B1DD17B682E
:1035D000DB6C012B0BD17B689B6CDAB27B681B68C0
:1035E0001A617B681B6D9A1C7B681A6577E07B68A3
:1035F0009B6C9BB21B12DAB27B681B681A617B68FA
:103600001B6D5A1C7B681A6569E07B681B6D012B7A
:103610000BD17B689B6CDAB27B681B681A617B6894
:103620001B6D5A1C7B681A6559E07B681B6D022B69
:1036300052D1FB7B222B0DD17B681B681A687B68FB
:103640001B6842F480721A607B681B6D5A1C7B6891
:103650001A6544E07B685B8D9BB2002B15D0FB7B29
:10366000212B12D17B685B6A1A787B681B681A6110
:103670007B685B6A5A1C7B685A627B685B8D9BB275
:10368000013B9AB27B685A8529E07B685B8D9BB2CF
:10369000002B24D1FB7B212B21D17B681B685A682E
:1036A0007B681B6822F4E0625A607B681B681A68BA
:1036B0007B681B6842F400721A607B6800221A6300
:1036C0007B68202283F83D207B68002283F83E201F
:1036D0007868FFF743FE02E07868FEF709FE00BF56
:1036E0001037BD4680BD80B584B000AF78607B6880
:1036F00093F83D30DBB2222B40F0B9807B68DB6A67
:10370000FB607B685B8D9BB2BB60BB68032B21D9E0
:103710007B681B681A697B685B6AD2B21A707B6827
:103720005B6A5A1C7B685A627B685B8D9BB2013B6B
:103730009AB27B685A857B685B8D9BB2032B40F005
:1037400096807B681B685A687B681B6822F48062DD
:103750005A608CE07B68DB6A022B7FD0BB68012B50
:1037600002D0BB68002B79D1786801F03DFB03469D
:10377000002B4CD17B681B681A687B681B6822F49D
:1037800080621A607B681B685A687B681B6822F439
:10379000E0625A607B681B681A697B685B6AD2B218
:1037A0001A707B685B6A5A1C7B685A627B685B8D07
:1037B0009BB2013B9AB27B685A857B68202283F8D2
:1037C0003D207B6893F83E30DBB2402B0AD17B680A
:1037D000002283F83E207B6800221A637868FFF796
:1037E000C6FD44E07B68002283F83E20FB68082B7E
:1037F00002D0FB68202B03D17B6800221A6302E011
:103800007B6812221A637868FFF796FD2FE07B68C9
:103810001B685A687B681B6822F4E0625A607B6808
:103820001B681A697B685B6AD2B21A707B685B6A34
:103830005A1C7B685A627B685B8D9BB2013B9AB2D3
:103840007B685A857B68202283F83D207B680022B4
:1038500083F83E20786802F078FB08E07B681B68FC
:103860005A687B681B6822F480625A60FFE700BFD9
:103870001037BD4680BD80B584B000AF78607B68EE
:10388000DB6AFB607B685B8D9BB2042B1BD17B6882
:103890001B685A687B681B6822F480625A607B68E8
:1038A0001B681A697B685B6AD2B21A707B685B6AB4
:1038B0005A1C7B685A627B685B8D9BB2013B9AB253
:1038C0007B685A85C4E07B685B8D9BB2032B29D152
:1038D0007B681B685A687B681B6822F480625A60A8
:1038E000FB68042B0AD0FB68022B07D07B681B689F
:1038F0001A687B681B6822F480621A607B681B6808
:103900001A697B685B6AD2B21A707B685B6A5A1C60
:103910007B685A627B685B8D9BB2013B9AB27B6885
:103920005A8595E07B685B8D9BB2022B7DD1FB684D
:10393000012B02D0FB68102B08D17B681B681A682A
:103940007B681B6822F480621A6016E0FB68042B17
:1039500002D0FB68022B08D17B681B681A687B6861
:103960001B6842F480621A6007E07B681B681A6873
:103970007B681B6842F400721A607B681B681A69D6
:103980007B685B6AD2B21A707B685B6A5A1C7B6880
:103990005A627B685B8D9BB2013B9AB27B685A8509
:1039A0007B681B681A697B685B6AD2B21A707B6895
:1039B0005B6A5A1C7B685A627B685B8D9BB2013BD9
:1039C0009AB27B685A857B681B685A687B681B685B
:1039D00022F440725A607B68202283F83D207B6885
:1039E00093F83E30DBB2402B0AD17B68002283F88B
:1039F0003E207B6800221A637868FFF7B8FC27E056
:103A00007B68002283F83E20FB68082B02D0FB680D
:103A1000202B03D17B6800221A6302E07B6812220C
:103A20001A637868FFF788FC12E07B681B681A69E4
:103A30007B685B6AD2B21A707B685B6A5A1C7B68CF
:103A40005A627B685B8D9BB2013B9AB27B685A8558
:103A500000BF1037BD4680BD80B483B000AF786032
:103A60007B6893F83E30DBB2402B17D17B681B6D2F
:103A7000002B09D17B685B6CDBB21A467B681B6844
:103A800002F0FE021A6167E07B685B6CDBB243F018
:103A90000103DAB27B681B681A615DE07B681B6911
:103AA000B3F5804F33D17B6893F83D30DBB2212BE7
:103AB00009D17B685B6CDBB21A467B681B6802F03D
:103AC000FE021A6108E07B685B6CDBB243F0010325
:103AD000DAB27B681B681A617B685B6B002B04D0D1
:103AE0007B685B6B9B6A002B08D17B689B6B002B10
:103AF00032D07B689B6B9B6A002B2DD07B681B6848
:103B00005A687B681B6842F400625A6024E07B6854
:103B10001B6D002B0ED17B685B6C9BB2DB11DBB2A3
:103B200003F00603DBB263F00F03DAB27B681B68B5
:103B30001A6111E07B681B6D012B0DD17B685B6CFA
:103B40009BB2DB11DBB203F00603DBB263F00E03C2
:103B5000DAB27B681B681A6100BF0C37BD4680BCB7
:103B6000704780B483B000AF78607B685B6CDAB27A
:103B70007B681B681A617B685B6B002B04D07B68D9
:103B80005B6B9B6A002B08D17B689B6B002B0CD076
:103B90007B689B6B9B6A002B07D07B681B685A680D
:103BA0007B681B6842F400625A6000BF0C37BD4658
:103BB00080BC704780B491B000AF78607B6893F8A8
:103BC0003E3087F83F307B68DB6ABB637B681B6BEA
:103BD0007B637B6893F83D30DBB2222B40F074812D
:103BE0007B681B6D002B0FD197F83F30402B0BD11A
:103BF00000233B637B681B685B693B637B681B68D6
:103C00009B693B633B6B6BE17B681B6D002B1DD19C
:103C10007B681B69B3F5404F18D10023FB627B68BA
:103C20001B685B69FB627B681B689B69FB62FB6AC4
:103C30007B681B681A687B681B6842F480721A6094
:103C40007B681B6D5A1C7B681A6549E17B685B8D3C
:103C50009BB2002B13D10023BB627B681B685B699E
:103C6000BB627B681B689B69BB62BB6A7B681B6825
:103C70001A687B681B6842F400721A6020E17B6856
:103C80005B8D9BB2012B40F08A80BB6B13F5803FAC
:103C900037D17B681B681A687B681B6822F48062D6
:103CA0001A607B681B685B6803F40063B3F5006F00
:103CB00013D17B681B681A687B681B6822F48062DA
:103CC0001A6000237B627B681B685B697B627B6890
:103CD0001B689B697B627B6AF2E000233B627B6826
:103CE0001B685B693B627B681B689B693B623B6A44
:103CF0007B681B681A687B681B6842F400721A6054
:103D0000DEE0BB6B082B2ED0BB6B202B2BD07B6B4C
:103D1000122B02D1BB6B012B25D1BB6B042B0ED018
:103D2000BB6B022B0BD0BB6B102B08D07B681B68C6
:103D30001A687B681B6822F480621A6007E07B685F
:103D40001B681A687B681B6842F480621A60002353
:103D5000FB617B681B685B69FB617B681B689B6917
:103D6000FB61FB69ACE07B681B681A687B681B68B9
:103D700022F480621A600023BB617B681B685B6968
:103D8000BB617B681B689B69BB61BB697B681B6807
:103D90001A687B681B6842F400721A6090E07B68C6
:103DA0005B8D9BB2022B58D1BB6B042B21D0BB6B1C
:103DB000022B1ED0BB6B102B1BD07B681B681A68B4
:103DC0007B681B6842F400621A6000237B617B6899
:103DD0001B685B697B617B681B689B697B617B6996
:103DE0007B681B681A687B681B6822F480621A6013
:103DF00012E07B681B681A687B681B6842F480626B
:103E00001A6000233B617B681B685B693B617B68D0
:103E10001B689B693B613B697B681B685B6803F4BB
:103E20000063B3F5006F4BD1BB6B13F5803F0BD034
:103E3000BB6B012B08D0BB6B082B05D0BB6B102BC9
:103E400002D0BB6B202B3BD17B681B685A687B6818
:103E50001B6842F480525A6032E07B681B681A6823
:103E60007B681B6842F480621A607B681B685B6831
:103E700003F40063B3F5006F17D1BB6B13F5803FFC
:103E80000BD0BB6B012B08D0BB6B082B05D0BB6BD9
:103E9000102B02D0BB6B202B07D17B681B685A68A4
:103EA0007B681B6842F480525A600023FB607B6889
:103EB0001B685B69FB607B681B689B69FB60FB6838
:103EC0007B6800221A650BE00023BB607B681B68DF
:103ED0005B69BB607B681B689B69BB60BB68FFE775
:103EE00000BF4437BD4680BC704780B584B000AF8A
:103EF00078607B6893F83D30FB737B685B8D9BB289
:103F0000002B2BD07B685B6A1A787B681B681A6170
:103F10007B685B6A5A1C7B685A627B685B8D9BB2CC
:103F2000013B9AB27B685A857B685B8D9BB2002B04
:103F300014D1FB7B292B11D17B681B685A687B68E5
:103F40001B6822F480625A607B6821221A637B68B6
:103F5000282283F83D207868FFF7F7F900BF103773
:103F6000BD4680BD80B483B000AF78607B685B8D58
:103F70009BB2002B11D07B685B6A1A787B681B6848
:103F80001A617B685B6A5A1C7B685A627B685B8D2E
:103F90009BB2013B9AB27B685A8500BF0C37BD4685
:103FA00080BC704780B584B000AF78607B6893F8C0
:103FB0003D30FB737B685B8D9BB2002B2CD07B6804
:103FC0001B681A697B685B6AD2B21A707B685B6A8D
:103FD0005A1C7B685A627B685B8D9BB2013B9AB22C
:103FE0007B685A857B685B8D9BB2002B14D1FB7B71
:103FF0002A2B11D17B681B685A687B681B6822F4E6
:1040000080625A607B6822221A637B68282283F8C8
:104010003D20786801F090FF00BF1037BD4680BD9D
:1040200080B483B000AF78607B685B8D9BB2002B5F
:1040300012D07B681B681A697B685B6AD2B21A70FF
:104040007B685B6A5A1C7B685A627B685B8D9BB29B
:10405000013B9AB27B685A8500BF0C37BD4680BCD5
:10406000704780B584B000AF786039600023FB737F
:104070007B6893F83D30DBB203F02803282B27D16F
:104080007B681B685A687B681B6822F480625A60F0
:104090003B689B0803F00103002B01D10123FB7354
:1040A0003B68DB0903F00103002B03D17B68DB686D
:1040B000BB8102E07B689B69BB817B68002283F83F
:1040C0003C20BA89FB7B1946786801F01BFF0EE0A3
:1040D0000023BB607B681B685B69BB607B681B68F7
:1040E0009B69BB60BB687B68002283F83C2000BFF3
:1040F0001037BD4680BD000080B584B000AF786049
:104100007B6893F83D30FB737B681B685A687B685B
:104110001B6822F4E0625A600023BB607B681B6866
:104120005B69BB607B681B681A687B681B6842F030
:1041300001021A60BB687B681B681A687B681B6891
:1041400022F480621A607B681B685B6803F400637A
:10415000B3F5006F72D1FB7B222B02D0FB7B2A2BA5
:1041600035D17B689B6B1B685B689AB27B685A850C
:104170007B685B8D9BB2002B05D07B681B6C43F08A
:1041800004027B681A647B681B685A687B681B683A
:1041900022F400625A607B689B6B1846FDF77EFD37
:1041A0000346012B49D07B689B6B694A5A637B6845
:1041B0009B6B1846FDF7FAFC0346002B3DD07B684D
:1041C0009B6B5B6B7A68926B1046984735E07B6817
:1041D0005B6B1B685B689AB27B685A857B685B8DFA
:1041E0009BB2002B05D07B681B6C43F004027B68FC
:1041F0001A647B681B685A687B681B6822F400623B
:104200005A607B685B6B1846FDF748FD0346012B3F
:1042100014D07B685B6B4E4A5A637B685B6B1846B5
:10422000FDF7C4FC0346002B08D07B685B6B5B6B1F
:104230007A68526B1046984700E000BF7B685B8D40
:104240009BB2002B3ED07B681B685B6903F00403C4
:10425000042B12D17B681B681A697B685B6AD2B237
:104260001A707B685B6A5A1C7B685A627B685B8D3C
:104270009BB2013B9AB27B685A857B681B685B697D
:1042800003F04003402B12D17B681B681A697B68DE
:104290005B6AD2B21A707B685B6A5A1C7B685A628E
:1042A0007B685B8D9BB2013B9AB27B685A857B68C9
:1042B0005B8D9BB2002B05D07B681B6C43F0040226
:1042C0007B681A647B681B6C002B03D0786800F055
:1042D000B7F839E0FB7B2A2B09D17B6800221A63EF
:1042E0007B68282283F83D20786801F025FE7B68F2
:1042F00093F83D30DBB2282B11D17B68154ADA6286
:104300007B6800221A637B68202283F83D207B684B
:10431000002283F83E20786801F0E8FD14E07B6815
:104320001B6B222B02D0FB7B222B0DD17B68002242
:104330001A637B68202283F83D207B68002283F883
:104340003E20786801F0F8FD00BF1037BD4680BD03
:10435000454900080000FFFF80B584B000AF7860D9
:104360007B6893F83D30FB737B68DB6ABB60BB689E
:10437000082B02D0BB68202B29D1FB7B282B26D110
:104380007B682E4ADA627B681B685A687B681B6808
:1043900022F4E0625A607B681B686FF480625A61A5
:1043A0007B681B681A687B681B6822F480621A604D
:1043B0007B6800221A637B68202283F83D207B689B
:1043C000002283F83E20786801F090FD31E0FB7B0D
:1043D000212B29D17B68194ADA627B6821221A6372
:1043E0007B68202283F83D207B68002283F83E20F2
:1043F0007B681B685A687B681B6822F4E0625A601D
:104400007B681B686FF480625A617B681B681A685E
:104410007B681B6822F480621A607868FDF768FF89
:104420007868FEF792FF04E07B681B686FF4806297
:104430005A6100BF1037BD4680BD00BF0000FFFFBE
:1044400080B584B000AF78607B6893F83D30FB7333
:104450007B6893F83E30BB73BB7B102B02D0BB7BD9
:10446000402B0AD1FB7B222B07D17B681B681A6883
:104470007B681B6822F400621A60FB7B03F0280350
:10448000282B07D17B6800221A637B68282283F8D7
:104490003D2015E07B681B685B6803F40063B3F59F
:1044A000006F0AD0FB7B602B07D07B68202283F84B
:1044B0003D207B68002283F83E207B6800221A633F
:1044C0007B681B685B6803F40063B3F5006F62D11F
:1044D0007B681B685A687B681B6822F400625A601C
:1044E0007B685B6B93F82130DBB2012B20D07B68BB
:1044F0005B6B6A4A5A637B685B6B1846FDF756FB39
:104500000346002B00F089807B681B681A687B6873
:104510001B6822F001021A607B68202283F83D208C
:104520007B685B6B5B6B7A68526B1046984774E0F4
:104530007B689B6B594A5A637B689B6B1846FDF7F7
:1045400035FB0346002B68D07B681B685B6903F072
:104550004003402B0BD17B681B681A697B685B6A40
:10456000D2B21A707B685B6A5A1C7B685A627B689D
:104570001B681A687B681B6822F001021A607B685E
:10458000202283F83D207B689B6B5B6B7A68926B83
:104590001046984741E07B6893F83D30DBB2602BD2
:1045A00025D17B68202283F83D207B6800221A6495
:1045B0007B681B685B6903F04003402B0BD17B6871
:1045C0001B681A697B685B6AD2B21A707B685B6A87
:1045D0005A1C7B685A627B681B681A687B681B6878
:1045E00022F001021A607868FEF7CAFE15E07B68C7
:1045F0001B685B6903F04003402B0BD17B681B6891
:104600001A697B685B6AD2B21A707B685B6A5A1C53
:104610007B685A62786801F098FC7B681B6CBB6011
:10462000BB6803F00103002B0ED1BB6803F002034B
:10463000002B09D1BB6803F00403002B04D1BB6835
:1046400003F00803002B07D07B681B685A687B685F
:104650001B6822F4E0625A607B6893F83D30FB737C
:104660007B681B6C03F00403042B13D1FB7B282B0A
:1046700010D17B680A4ADA627B6800221A637B6881
:10468000202283F83D207B68002283F83E20786852
:1046900001F02CFC00BF1037BD4680BD4549000825
:1046A0000000FFFF80B588B002AFF8607A603B6021
:1046B0000B467B81FB68DB6A7B617B69082B06D03C
:1046C0007B69012B03D07B6913F5803F08D1FB6820
:1046D0001B681A68FB681B6842F480721A600BE062
:1046E000FB681B6B122B07D1FB681B681A68FB6801
:1046F0001B6842F480721A603B6800937B6800225A
:104700004FF00111F86800F0C5F90346002B0DD0F9
:10471000FB681B681B6803F48073B3F5807F03D1CB
:10472000FB684FF400721A64032335E0FB681B69D1
:10473000B3F5804F08D17B89DBB21A46FB681B6852
:1047400002F0FE021A611BE07B89DB11DBB203F091
:104750000603DBB263F00F03DAB2FB681B681A6171
:104760003B687A680E49F86800F00EFA0346002BA1
:1047700001D0012310E07B89DAB2FB681B681A6163
:104780003B687A680749F86800F0FEF90346002B99
:1047900001D0012300E0002318461837BD4680BD34
:1047A000080001000200010080B588B002AFF86087
:1047B0007A603B600B467B81FB68DB6A7B61FB6850
:1047C0001B681A68FB681B6842F480621A607B6988
:1047D000082B06D07B69012B03D07B6913F5803F42
:1047E00008D1FB681B681A68FB681B6842F480727A
:1047F0001A600BE0FB681B6B112B07D1FB681B6871
:104800001A68FB681B6842F480721A603B68009368
:104810007B6800224FF00111F86800F03BF9034675
:10482000002B0DD0FB681B681B6803F48073B3F585
:10483000807F03D1FB684FF400721A64032379E090
:10484000FB681B69B3F5804F08D17B89DBB243F06D
:104850000103DAB2FB681B681A615FE07B89DB1138
:10486000DBB203F00603DBB263F00F03DAB2FB68DE
:104870001B681A613B687A683049F86800F084F96F
:104880000346002B01D0012354E07B89DAB2FB6898
:104890001B681A613B687A682949F86800F074F966
:1048A0000346002B01D0012344E000233B61FB6859
:1048B0001B685B693B61FB681B689B693B613B69EB
:1048C000FB681B681A68FB681B6842F480721A60F8
:1048D0003B6800937B6800224FF00111F86800F0FC
:1048E000D9F80346002B0DD0FB681B681B6803F446
:1048F0008073B3F5807F03D1FB684FF400721A64B4
:10490000032317E07B89DB11DBB203F00603DBB284
:1049100063F00E03DAB2FB681B681A613B687A68C1
:104920000749F86800F030F90346002B01D0012355
:1049300000E0002318461837BD4680BD080001007E
:104940000200010080B586B000AF78600023FB60F4
:104950007B685B6A7B617B6993F83D30FB744B4BF2
:104960001B68DB084A4AA2FB03231A0A13469B0072
:104970001344DA00D31AFB60FB68002B06D17B6975
:104980001B6C43F020027B691A640AE0FB68013B60
:10499000FB607B691B681B6803F40073B3F5007F41
:1049A000EAD07B695B6B002B03D07B695B6B0022D9
:1049B0009A627B699B6B002B03D07B699B6B002207
:1049C0009A627B691B681A687B691B6822F48062A3
:1049D0001A607B6900225A857B695B6B002B03D0D0
:1049E0007B695B6B00225A637B699B6B002B03D056
:1049F0007B699B6B00225A637B691B681A687B6921
:104A00001B6822F001021A607B6993F83D30DBB22B
:104A1000602B0ED17B69202283F83D207B69002228
:104A200083F83E207B6900221A647869FEF7A8FCAF
:104A300027E0FB7C03F02803282B17D17B691B6838
:104A40001A687B691B6842F001021A607B691B6867
:104A50001A687B691B6842F480621A607B690022D5
:104A60001A637B69282283F83D2007E07B692022B6
:104A700083F83D207B69002283F83E20786901F0AD
:104A800064FA00BF1837BD4680BD00BF000000209B
:104A900089B5F81480B584B000AFF860B9603B60A8
:104AA0001346FB7148E03B68B3F1FF3F44D0FCF78D
:104AB00041FF0246BB69D31A3A689A4202D33B6867
:104AC000002B39D1BB681B0CDBB2012B0DD1FB686D
:104AD0001B685B69DA43BB6813409BB2002B0CBFB9
:104AE00001230023DBB21A460CE0FB681B689B69BC
:104AF000DA43BB6813409BB2002B0CBF0123002399
:104B0000DBB21A46FB799A4216D1FB6800221A637F
:104B1000FB68202283F83D20FB68002283F83E20BA
:104B2000FB681B6C43F02002FB681A64FB680022E0
:104B300083F83C20012323E0BB681B0CDBB2012B74
:104B40000DD1FB681B685B69DA43BB6813409BB2FD
:104B5000002B0CBF01230023DBB21A460CE0FB68DC
:104B60001B689B69DA43BB6813409BB2002B0CBFE8
:104B700001230023DBB21A46FB799A4293D000232B
:104B800018461037BD4680BD80B584B000AFF860D0
:104B9000B9607A603B6071E0FB681B685B6903F495
:104BA0008063B3F5806F23D1FB681B681A68FB68CC
:104BB0001B6842F400721A60FB681B686FF4806225
:104BC0005A61FB6800221A63FB68202283F83D20AB
:104BD000FB68002283F83E20FB681B6C43F0040254
:104BE000FB681A64FB68002283F83C20012367E01D
:104BF0007B68B3F1FF3F41D0FCF79CFE02463B6867
:104C0000D31A7A689A4202D37B68002B36D1BB68EC
:104C10001B0CDBB2012B0CD1FB681B685B69DA4310
:104C2000BB6813409BB2002B14BF01230023DBB2EF
:104C30000BE0FB681B689B69DA43BB6813409BB2BF
:104C4000002B14BF01230023DBB2002B16D0FB681E
:104C500000221A63FB68202283F83D20FB680022B3
:104C600083F83E20FB681B6C43F02002FB681A644B
:104C7000FB68002283F83C20012321E0BB681B0C69
:104C8000DBB2012B0CD1FB681B685B69DA43BB68A4
:104C900013409BB2002B14BF01230023DBB20BE0B7
:104CA000FB681B689B69DA43BB6813409BB2002B0F
:104CB00014BF01230023DBB2002B7FF46DAF002370
:104CC00018461037BD4680BD80B584B000AFF8608F
:104CD000B9607A6034E0F86800F015F90346002BFB
:104CE00001D0012334E0BB68B3F1FF3F28D0FCF7CB
:104CF00021FE02467B68D31ABA689A4202D3BB6887
:104D0000002B1DD1FB681B685B6903F08003802BBF
:104D100016D0FB6800221A63FB68202283F83D202E
:104D2000FB68002283F83E20FB681B6C43F02002E6
:104D3000FB681A64FB68002283F83C20012307E02B
:104D4000FB681B685B6903F08003802BC3D10023E1
:104D500018461037BD4680BD80B584B000AFF860FE
:104D6000B9607A6034E0F86800F0CDF80346002BB3
:104D700001D0012334E0BB68B3F1FF3F28D0FCF73A
:104D8000D9FD02467B68D31ABA689A4202D3BB683F
:104D9000002B1DD1FB681B685B6903F00403042B27
:104DA00016D0FB6800221A63FB68202283F83D209E
:104DB000FB68002283F83E20FB681B6C43F0200256
:104DC000FB681A64FB68002283F83C20012307E09B
:104DD000FB681B685B6903F00403042BC3D1002349
:104DE00018461037BD4680BD80B485B000AF7860EE
:104DF0000023FB60134B1B68DB08134AA2FB032351
:104E00001A0A13469B001344FB60FB68013BFB60DE
:104E1000FB68002B07D17B681B6C43F020027B688A
:104E20001A64012308E07B681B681B6803F40073A5
:104E3000B3F5007FE9D0002318461437BD4680BC87
:104E4000704700BF0000002089B5F81480B584B019
:104E500000AFF860B9607A6049E0FB681B685B6985
:104E600003F01003102B19D1FB681B686FF01002C0
:104E70005A61FB6800221A63FB68202283F83D20F8
:104E8000FB68002283F83E20FB681A6CFB681A64FA
:104E9000FB68002283F83C20012330E0FCF74AFD48
:104EA00002467B68D31ABA689A4202D3BB68002BC9
:104EB0001DD1FB681B685B6903F04003402B16D0D3
:104EC000FB6800221A63FB68202283F83D20FB6800
:104ED000002283F83E20FB681B6C43F02002FB6835
:104EE0001A64FB68002283F83C20012307E0FB687A
:104EF0001B685B6903F04003402BAED100231846CA
:104F00001037BD4680BD80B483B000AF78607B6849
:104F10001B685B6903F48063B3F5806F1BD17B680A
:104F20001B686FF480625A617B6800221A637B6899
:104F3000202283F83D207B68002283F83E207B6896
:104F40001B6C43F004027B681A647B68002283F8C0
:104F50003C20012300E0002318460C37BD4680BCEE
:104F6000704780B483B000AF78607B68DB6AB3F5CC
:104F70002A0F03D17B680122DA6207E07B68DB6AD3
:104F8000B3F12A4F02D17B680822DA6200BF0C37E6
:104F9000BD4680BC7047000080B586B000AF786029
:104FA0007B68002B01D101236CE27B681B6803F056
:104FB0000103002B00F08780924B5B6803F00C0329
:104FC000042B0CD08F4B5B6803F00C03082B12D121
:104FD0008C4B5B6803F48033B3F5803F0BD1894B76
:104FE0001B6803F40033002B6CD07B685B68002BDC
:104FF00068D1012346E27B685B68B3F5803F06D148
:10500000804B1B687F4A43F4803313602EE07B683B
:105010005B68002B0CD17B4B1B687A4A23F48033EE
:105020001360784B1B68774A23F4802313601DE0DC
:105030007B685B68B3F5A02F0CD1724B1B68714A7B
:1050400043F4802313606F4B1B686E4A43F4803334
:1050500013600BE06B4B1B686A4A23F480331360C8
:10506000684B1B68674A23F4802313607B685B6886
:10507000002B13D0FCF75EFC386108E0FCF75AFC0B
:1050800002463B69D31A642B01D90323FAE15D4B35
:105090001B6803F40033002BF0D014E0FCF74AFC4B
:1050A000386108E0FCF746FC02463B69D31A642BE2
:1050B00001D90323E6E1534B1B6803F40033002BB3
:1050C000F0D100E000BF7B681B6803F00203002BF7
:1050D00063D04C4B5B6803F00C03002B0BD0494BA7
:1050E0005B6803F00C03082B1CD1464B5B6803F490
:1050F0008033002B16D1434B1B6803F00203002BB7
:1051000005D07B681B69012B01D00123BAE13D4B1F
:105110001B6823F0F8027B685B69DB0039491343A5
:105120000B603AE07B681B69002B20D0364B0122D4
:105130001A60FCF7FFFB386108E0FCF7FBFB024656
:105140003B69D31A022B01D903239BE12D4B1B682A
:1051500003F00203002BF0D02A4B1B6823F0F80267
:105160007B685B69DB00274913430B6015E0264B26
:1051700000221A60FCF7DEFB386108E0FCF7DAFB7E
:1051800002463B69D31A022B01D903237AE11D4B56
:105190001B6803F00203002BF0D17B681B6803F04F
:1051A0000803002B3AD07B689B69002B19D0174B62
:1051B00001221A60FCF7BEFB386108E0FCF7BAFB7D
:1051C00002463B69D31A022B01D903235AE10D4B46
:1051D0005B6A03F00203002BF0D0012000F0CCFA50
:1051E0001CE00A4B00221A60FCF7A4FB38610FE0B8
:1051F000FCF7A0FB02463B69D31A022B08D9032314
:1052000040E100BF001002400000424280044242E0
:105210009E4B5B6A03F00203002BE9D17B681B689D
:1052200003F00403002B00F0A6800023FB75974BCE
:10523000DB6903F08053002B0DD1944BDB69934A5B
:1052400043F08053D361914BDB6903F08053BB6023
:10525000BB680123FB758E4B1B6803F48073002B26
:1052600018D18B4B1B688A4A43F480731360FCF798
:1052700061FB386108E0FCF75DFB02463B69D31A2D
:10528000642B01D90323FDE0814B1B6803F4807379
:10529000002BF0D07B68DB68012B06D17B4B1B6AAF
:1052A0007A4A43F0010313622DE07B68DB68002B30
:1052B0000CD1764B1B6A754A23F001031362734BC2
:1052C0001B6A724A23F0040313621CE07B68DB68EC
:1052D000052B0CD16D4B1B6A6C4A43F0040313621F
:1052E0006A4B1B6A694A43F0010313620BE0674B88
:1052F0001B6A664A23F001031362644B1B6A634A0C
:1053000023F0040313627B68DB68002B15D0FCF7E5
:1053100011FB38610AE0FCF70DFB02463B69D31A2A
:1053200041F28832934201D90323ABE0574B1B6A09
:1053300003F00203002BEED014E0FCF7FBFA386117
:105340000AE0FCF7F7FA02463B69D31A41F28832C9
:10535000934201D9032395E04C4B1B6A03F00203EF
:10536000002BEED1FB7D012B05D1484BDB69474A71
:1053700023F08053D3617B68DB69002B00F08180D0
:10538000424B5B6803F00C03082B61D07B68DB6940
:10539000022B46D13F4B00221A60FCF7CBFA386152
:1053A00008E0FCF7C7FA02463B69D31A022B01D981
:1053B000032367E0354B1B6803F00073002BF0D12B
:1053C0007B681B6AB3F5803F08D1304B5B6823F4E0
:1053D00000327B689B682D4913434B602B4B5B6805
:1053E00023F474127B68196A7B685B6A0B43274954
:1053F00013434B60274B01221A60FCF79BFA38617C
:1054000008E0FCF797FA02463B69D31A022B01D950
:10541000032337E01D4B1B6803F00073002BF0D013
:105420002FE01C4B00221A60FCF784FA386108E078
:10543000FCF780FA02463B69D31A022B01D90323F9
:1054400020E0124B1B6803F00073002BF0D118E032
:105450007B68DB69012B01D1012313E00B4B5B68F7
:10546000FB60FB6803F480327B681B6A9A4206D1BA
:10547000FB6803F470127B685B6A9A4201D00123D7
:1054800000E0002318461837BD4680BD00100240DA
:10549000007000406000424280B584B000AF786088
:1054A00039607B68002B01D10123D0E06A4B1B6877
:1054B00003F007033A689A4210D9674B1B6823F040
:1054C000070265493B6813430B60634B1B6803F09D
:1054D00007033A689A4201D00123B8E07B681B6851
:1054E00003F00203002B20D07B681B6803F0040349
:1054F000002B05D0594B5B68584A43F4E063536076
:105500007B681B6803F00803002B05D0534B5B68D6
:10551000524A43F460535360504B5B6823F0F002EF
:105520007B689B684D4913434B607B681B6803F0A5
:105530000103002B40D07B685B68012B07D1474BF0
:105540001B6803F40033002B15D101237FE07B6837
:105550005B68022B07D1414B1B6803F00073002BE3
:1055600009D1012373E03D4B1B6803F00203002BBC
:1055700001D101236BE0394B5B6823F003027B68A8
:105580005B68364913434B60FCF7D4F9F8600AE0D6
:10559000FCF7D0F90246FB68D31A41F288329342F5
:1055A00001D9032353E02D4B5B6803F00C027B68A9
:1055B0005B689B009A42EBD1274B1B6803F0070303
:1055C0003A689A4210D2244B1B6823F00702224902
:1055D0003B6813430B60204B1B6803F007033A68DA
:1055E0009A4201D0012332E07B681B6803F0040378
:1055F000002B08D0194B5B6823F4E0627B68DB6802
:10560000164913434B607B681B6803F00803002BAB
:1056100009D0124B5B6823F460527B681B69DB0086
:105620000E4913434B6000F021F802460B4B5B68B8
:105630001B0903F00F030A49CB5C22FA03F3094A62
:105640001360094B1B681846FCF732F90023184613
:105650001037BD4680BD00BF002002400010024050
:1056600094770008000000200400002080B487B078
:1056700000AF0023FB600023BB6000237B6100239D
:105680007B6000233B611E4B5B68FB60FB6803F0A3
:105690000C03042B02D0082B03D027E0194B3B61ED
:1056A00027E0FB689B0C03F00F03174AD35C7B6079
:1056B000FB6803F48033002B10D0114B5B685B0C4C
:1056C00003F00103114AD35CBB607B680D4A02FB07
:1056D00003F2BB68B2FBF3F37B6104E07B680C4A26
:1056E00002FB03F37B617B693B6102E0054B3B619D
:1056F00000BF3B6918461C37BD4680BC704700BFE1
:105700000010024000127A00AC770008BC77000855
:1057100000093D0080B400AF024B1B681846BD462F
:1057200080BC70470000002080B500AFFFF7F2FF9B
:105730000246054B5B681B0A03F007030349CB5C79
:1057400022FA03F3184680BD00100240A477000837
:1057500080B500AFFFF7DEFF0246054B5B68DB0A52
:1057600003F007030349CB5C22FA03F3184680BD1C
:1057700000100240A477000880B485B000AF7860C4
:105780000A4B1B680A4AA2FB03235B0A7A6802FBE6
:1057900003F3FB6000BFFB685A1EFA60002BF9D1CF
:1057A00000BF00BF1437BD4680BC7047000000201A
:1057B000D34D621080B582B000AF78607B68002B5B
:1057C00001D1012342E07B6893F84130DBB2002B2A
:1057D00006D17B68002283F840207868FBF76EFFD3
:1057E0007B68242283F841207B681B68DA687B6829
:1057F0001B6822F40052DA60786800F02BF87B68AE
:105800001B681A697B681B6822F490421A617B68E6
:105810001B685A697B681B6822F02A025A617B6800
:105820001B68DA687B681B6842F40052DA607B68A8
:1058300000225A647B68202283F841207B68202262
:1058400083F842207B6800225A63002318460837F9
:10585000BD4680BD80B584B000AF78607B681B68B2
:105860001B6923F440517B68DA687B681B680A4334
:105870001A617B689A687B681B691A437B685B695D
:105880001343BB607B681B68DB6823F4B05323F0D1
:105890000C037A681268B9680B43D3607B681B6895
:1058A0005B6923F440717B689A697B681B680A43D3
:1058B0005A617B681B682C4A934203D1FFF748FF6B
:1058C000F86002E0FFF730FFF860FA6813469B00CB
:1058D00013449A001A447B685B689B00B2FBF3F3A5
:1058E000224AA2FB03235B091901FA6813469B00B5
:1058F00013449A001A447B685B689B00B2FBF3F286
:105900001A4BA3FB02035B09642000FB03F3D31AC9
:105910001B013233154AA2FB03235B0903F0F0039A
:105920001944FA6813469B0013449A001A447B6892
:105930005B689B00B2FBF3F20C4BA3FB02035B0919
:10594000642000FB03F3D31A1B013233074AA2FB86
:1059500003235B0903F00F027B681B680A449A600B
:1059600000BF1037BD4680BD003801401F85EB5198
:1059700080B483B000AF786039607B683A681A60A1
:105980007B684FF000025A607B684FF000029A601B
:105990007B684FF00002DA607B684FF000021A610A
:1059A0007B6800221A757B6800229A617B6800225E
:1059B000DA6100BF0C37BD4680BC704780B582B04D
:1059C00000AF78607B6818684FF0FF3301227021C8
:1059D000FDF7B4F80346002B01D1012300E00023BA
:1059E00018460837BD4680BD80B586B002AF7860E6
:1059F000114A07F10C031268114619800233120C88
:105A00001A707B68186807F10C024FF0FF3300939F
:105A100003237021FCF780FC0346002B01D00223F6
:105A200005E0FBF787FF02467B689A610023184672
:105A30001037BD4680BD00BF8C77000880B588B0A8
:105A400002AF78600723FB737B6818687B6803F1FB
:105A50002002FB7B9BB24FF0FF3100917021FCF7DD
:105A600059FD0346002B01D0022320E00123FB75E2
:105A700000233B610CE07A683B69134420331B78B8
:105A8000002B02D00023FB7506E03B6901333B612C
:105A9000FB7B3A699A42EEDBFB7D002B01D00423AD
:105AA00005E0FBF747FF02467B68DA6100231846F2
:105AB0001837BD4680BD000080B586B000AF786065
:105AC0007B6893F820207B681A757B6893F82130F7
:105AD0001B027A6892F8222013441B027A6892F81B
